:100000000C945D000C94F0040C94C9040C948500CD
:100010000C9485000C9485000C9485000C9485004C
:100020000C9485000C9485000C9485000C9485003C
:100030000C9485000C9485000C9485000C9485002C
:100040000C947F040C9485000C9485000C9485001E
:100050000C9485000C9485000C9485000C9485000C
:100060000C9417050C948500000000002400270064
:100070002A0000000000250028002B0004040404CE
:100080000404040402020202020203030303030342
:10009000010204081020408001020408102001021F
:1000A00004081020000000080002010000030407FB
:1000B0000000000000000000360611241FBECFEF34
:1000C000D8E0DEBFCDBF11E0A0E0B1E0E8EAF0E1AA
:1000D00002C005900D92A439B107D9F722E0A4E936
:1000E000B1E001C01D92A537B207E1F710E0CDE500
:1000F000D0E004C02197FE010E944C08CC35D10706
:10010000C9F70E9458060C9452080C94000090E025
:10011000FC01EC55FF4F2491FC01E057FF4F349157
:10012000FC01E458FF4FE491EE23C9F0222339F09B
:10013000233001F1A8F4213019F1223029F1F0E047
:10014000EE0FFF1FEE58FF4FA591B4918FB7F894B3
:10015000EC91611126C030953E233C938FBF0895EA
:100160002730A9F02830C9F0243049F78091800069
:100170008F7D03C0809180008F7780938000DFCFD8
:1001800084B58F7784BDDBCF84B58F7DFBCF809125
:10019000B0008F778093B000D2CF8091B0008F7D78
:1001A000F9CF3E2BDACF3FB7F89480915902909166
:1001B0005A02A0915B02B0915C0226B5A89B05C0D3
:1001C0002F3F19F00196A11DB11D3FBFBA2FA92FD6
:1001D000982F8827BC01CD01620F711D811D911DD3
:1001E00042E0660F771F881F991F4A95D1F708953F
:1001F0008F929F92AF92BF92CF92DF92EF92FF9237
:100200004B015C010E94D3006B017C010E94D30072
:100210006C197D098E099F09683E7340810591051F
:10022000A8F321E0821A9108A108B10888EEC80E4F
:1002300083E0D81EE11CF11C81149104A104B104D7
:1002400029F7FF90EF90DF90CF90BF90AF909F90F5
:100250008F900895089508950895AF92BF92CF9218
:10026000DF92EF92FF920F931F93CF93DF936C0176
:100270007B018B01040F151FEB015E01AE18BF0857
:10028000C017D10759F06991D601ED91FC91019009
:10029000F081E02DC6010995892B79F7C501DF9121
:1002A000CF911F910F91FF90EF90DF90CF90BF9073
:1002B000AF90089508952091D901260F3327331F59
:1002C00021323105ECF420912202FC0190E080E023
:1002D000243069F082E00895A091D9012191AC0108
:1002E00047545E4FA40FB52FB11D2C93019686176E
:1002F00098F38091D901680F6093D90180E0089547
:1003000081E008951092220281E0809321021092F0
:10031000FC0161E082E10E94870061E083E10E94CC
:100320008700E9EBF0E080818E7F808380818D7F84
:10033000808388E48093B80085E48093BC000895AE
:10034000CF93DF9391E09093B8018823B9F0C091E7
:10035000B800D091BA008091BC008A7B8093BC0029
:1003600060E082E10E94870060E083E10E948700F4
:100370000E948201D093BA00C093B800DF91CF9160
:1003800008950895E091510280915002E81730F4E9
:10039000F0E0E856FE4F808190E008958FEF9FEFE8
:1003A000089590915102809150022FEF3FEF9817DE
:1003B00048F4E92FF0E0E856FE4F208130E09F5FDF
:1003C00090935102C9010895809150029091510279
:1003D000891B990B0895CF92DF92EF92FF920F93B2
:1003E0001F93CF93DF937C01CB018A0120912802D8
:1003F000222389F0EB016B01C40ED51ECC15DD055F
:1004000069F06991D701ED91FC910190F081E02DA7
:10041000C7010995F3CF642F0E945B01C801DF91EA
:10042000CF911F910F91FF90EF90DF90CF900895A3
:10043000CF93DF931F92CDB7DEB769832091280257
:100440002223F9F020914E02203258F021E030E0D2
:10045000FC013383228390E080E00F90DF91CF9105
:10046000089580914F02E82FF0E0E75DFD4F9981FC
:1004700090838F5F80934F0280934E0281E090E0E3
:10048000ECCF61E0CE0101960E945B01F7CFCF92E5
:10049000DF92EF92FF920F931F93CF93DF93FC01B4
:1004A000C48121E020932802C093490210924F0298
:1004B00010924E028385682B8DE592E00E9418020F
:1004C000D0914E02D13208F092C00E94D3006B014D
:1004D0007C0180912202811165C082E0809322021A
:1004E00081E0809321028FEF8093200210921F02FF
:1004F000D0931E02A9E2B2E0EEEFF1E080E0D81363
:1005000085C01092FD018091FD01CC0FC82BC093D6
:10051000FD018091FC01813009F07CC01092FC014A
:100520000E94D3006B017C018091FD018093BB0090
:100530008091240290912502A0912602B091270279
:10054000892B8A2B8B2B99F00E94D30000912402D7
:100550001091250220912602309127026C197D0905
:100560008E099F090617170728073907E0F18091C0
:10057000BC0083FDD9CF85EC8093BC000E94D300E2
:100580006B017C0180912202823009F445C0809188
:1005900020028F3F61F180912002803241F18091F1
:1005A000200225C08091240290912502A09126026C
:1005B000B0912702892B8A2B8B2B09F48ACF0E94BA
:1005C000D30000912402109125022091260230913F
:1005D00027026C197D098E099F090617170728073E
:1005E000390708F076CF809123020E94A001109273
:1005F0004F0210924E0210922802DF91CF911F916C
:100600000F91FF90EF90DF90CF9008959D9191937F
:100610008F5F75CF85EEB0CF809124029091250237
:10062000A0912602B0912702892B8A2B8B2B09F4EB
:10063000A9CF0E94D300009124021091250220919D
:100640002602309127026C197D098E099F09061731
:1006500017072807390708F095CFC5CF90E080E04D
:1006600008950F931F938FB7F894409155025091BE
:10067000560260915702709158028FBF8091940189
:1006800090919501A0919601B09197018A019B01EB
:10069000081B190B2A0B3B0BD901C801C397A105F5
:1006A000B10588F080915202909153020196909387
:1006B00053028093520240939401509395016093AA
:1006C0009601709397011F910F9108958F929F92B9
:1006D000AF92BF920F931F93CF93DF93CDB7DEB747
:1006E000A1970FB6F894DEBF0FBECDBF19A242305E
:1006F00008F44AE08E010F5D1F4F842E912CB12C1F
:10070000A12CA50194010E942A08E62FB901CA0173
:10071000EA3044F5E05DD801EE938D01232B242BC4
:10072000252B79F790E080E0109769F0FD010190AA
:100730000020E9F73197AF014A1B5B0BBD0189E649
:1007400092E00E942D01A1960FB6F894DEBF0FBE75
:10075000CDBFDF91CF911F910F91BF90AF909F9030
:100760008F900895E95CD7CFFC0101900020E9F754
:100770003197AF01481B590BBC0189E692E00C94FC
:100780002D010F931F93CF938C01C62F0E94470218
:100790006C2F6460C8010E9447026C2F6B7FC801F8
:1007A0000E94470283EC90E00197F1F7CF911F91EF
:1007B0000F9108950F931F93CF93DF938C01D62F42
:1007C000C42F607F642B0E94C10380E1D89FB001D9
:1007D00011246C2BC801DF91CF911F910F910C94C4
:1007E000C103CF93DF93CDB7DEB728970FB6F89448
:1007F000DEBF0FBECDBF98E0E6E0F1E0DE0111966E
:1008000001900D929A95E1F790917202961710F46B
:100810006FEF690F262F30E0220F331F41E050E0C9
:100820004C0F5D1F240F351FF9016081680F606850
:1008300040E089E692E028960FB6F894DEBF0FBE3E
:10084000CDBFDF91CF910C94DA0341E00E94DA032F
:1008500081E090E00895CF92DF92EF92FF926B01DA
:100860007C0141E06DE289E692E00E94DA036627AE
:100870007727CB016C197D098E099F094AE00E94F8
:1008800066030196FF90EF90DF90CF90089585ED7D
:100890008093BC008091240290912502A0912602B1
:1008A000B09127020796A11DB11D23E0B695A7952B
:1008B000979587952A95D1F72091BC0024FD03C018
:1008C00010922202089540912402509125026091D5
:1008D000260270912702452B462B472B69F3009780
:1008E000A105B10541F02AE22A95F1F700C0019770
:1008F000A109B109E1CF809123020C94A0011F92BC
:100900000F920FB60F9211242F933F938F939F93C3
:10091000AF93BF938091550290915602A0915702D8
:10092000B09158023091540223E0230F2D3758F52F
:100930000196A11DB11D20935402809355029093FE
:100940005602A0935702B093580280915902909199
:100950005A02A0915B02B0915C020196A11DB11DEB
:100960008093590290935A02A0935B02B0935C0269
:10097000BF91AF919F918F913F912F910F900FBE9B
:100980000F901F90189526E8230F0296A11DB11D08
:10099000D2CF1F920F920FB60F9211242F933F9335
:1009A0004F935F936F937F938F939F93AF93BF9377
:1009B000EF93FF93E0910201F09103010995FF91FC
:1009C000EF91BF91AF919F918F917F916F915F91C7
:1009D0004F913F912F910F900FBE0F901F90189540
:1009E0001F920F920FB60F9211242F933F934F93A4
:1009F0005F936F937F938F939F93AF93BF93EF9387
:100A0000FF93E0910001F09101010995FF91EF91B1
:100A1000BF91AF919F918F917F916F915F914F9116
:100A20003F912F910F900FBE0F901F9018951F921E
:100A30000F920FB60F9211242F933F934F935F9312
:100A40006F937F938F939F93AF93BF93EF93FF9396
:100A50008091B900887F803609F44AC0F0F5883269
:100A600009F4A7C018F5803109F49BC0B8F48823B5
:100A700009F4F9C0883009F494C0FF91EF91BF9157
:100A8000AF919F918F917F916F915F914F913F9126
:100A90002F910F900FBE0F901F901895883109F479
:100AA00088C0803251F78093200214C0803409F44A
:100AB0009DC040F48033B9F38833F9F68093200267
:100AC00085ECB0C0803509F485C0883509F496C03E
:100AD000883499F60E944704D0CF883909F48CC035
:100AE00038F5883729F050F4883611F0803729F628
:100AF00083E0809322021092FB0157C0883809F4EA
:100B00007BC0803919F0803809F0B7CF8091FB01A4
:100B1000803208F071C0E091FB0181E08E0F80937C
:100B2000FB018091BB00F0E0E552FE4F80833DC0A9
:100B3000803B39F0E0F4803A09F479C0883A09F052
:100B40009CCF84E0809322021092DA011092D901A6
:100B5000E0914C02F0914D0209958091D9018111EB
:100B60000FC081E08093D9011092B90109C0803C87
:100B700009F4A6CF883C09F4A3CF883B09F07DCFC8
:100B8000E091DA0181E08E0F8093DA01F0E0E75422
:100B9000FE4F80818093BB009091DA018091D90152
:100BA00029C08091FD018093BB0085EC8093BC003F
:100BB00064CF90911F0280911E02981758F5E09122
:100BC0001F0281E08E0F80931F02F0E0E250FE4F83
:100BD0008081E9CFE0911F0281E08E0F80931F0298
:100BE0008091BB00F0E0E250FE4F808390911F02A5
:100BF00080911E029817C8F285E8D8CFE0911F02B5
:100C000081E08E0F80931F028091BB00F0E0E250E4
:100C1000FE4F80838091210281115CCF81E080931F
:100C2000FC0184EA8093BC001092220226CF85EC5E
:100C30008093BC00109222028091FB01803230F43C
:100C4000E091FB01F0E0E552FE4F10826091FB0164
:100C500070E0E0914A02F0914B028BED91E0099532
:100C60001092FB010ACF1092200234CFEDE5F2E0A2
:100C70001382128288EE93E0A0E0B0E08483958333
:100C8000A683B78382E191E091838083E9E6F2E075
:100C90001382128284E291E09183808387E28483CD
:100CA00084E1808784E08187128688E083870895C5
:100CB000789484B5826084BD84B5816084BD85B537
:100CC000826085BD85B5816085BD80916E00816043
:100CD00080936E00109281008091810082608093E9
:100CE00081008091810081608093810080918000EB
:100CF0008160809380008091B10084608093B10016
:100D00008091B00081608093B00080917A0084600F
:100D100080937A0080917A00826080937A0080913B
:100D20007A00816080937A0080917A008068809355
:100D30007A001092C100109251021092500210924B
:100D40004F0210924E020E9482018AE291E090933B
:100D50004D0280934C028BE291E090934B02809382
:100D60004A0210926E0280917202823018F098E06E
:100D700090936E0290917302992339F0813029F497
:100D800080916E02846080936E0262E370E080E086
:100D900090E00E94F8006091740289E692E00E945F
:100DA000470268EE73E080E090E00E94F80060E3A4
:100DB00089E692E00E94C103CBE4D6E4CE0101971C
:100DC000F1F760E389E692E00E94C1032197F1F711
:100DD00060E389E692E00E94C10383E592E0019717
:100DE000F1F760E289E692E00E94C10360916E0231
:100DF000606240E089E692E00E94DA0384E080933A
:100E00006F0240E06CE089E692E00E94DA0340E085
:100E100061E089E692E00E94DA03CBE3DFE1CE01F4
:100E20000197F1F782E08093700240E066E089E686
:100E300092E00E94DA0340E062E089E692E00E94DC
:100E4000DA032197F1F788E08093740260E089E685
:100E500092E00E944702E2E9F0E02491EEE7F0E040
:100E600084918823C1F090E0880F991FFC01E85914
:100E7000FF4FC591D491FC01EE58FF4FA591B4915D
:100E80009FB7F8943881822F809583238883EC91D3
:100E9000E22BEC939FBFE3E9F0E02491EFE7F0E071
:100EA0008491882399F090E0880F991FFC01E859FC
:100EB000FF4FA591B491FC01EE58FF4F859194919D
:100EC0008FB7F894EC91E22BEC938FBF61E083E055
:100ED0000E94870081E393E09093010180930001D9
:100EE000809169008C7F826080936900E89A1092FB
:100EF00053021092520240E061E089E692E00E94C3
:100F0000DA038BE39FE10197F1F760E080E00E9454
:100F1000F1038CE291E00E94B40361E080E00E9462
:100F2000F1038EE391E00E94B40362E080E00E944E
:100F3000F1038FE491E00E94B40363E080E00E943B
:100F4000F1038CE591E00E94B4030AE010E0C0E0F8
:100F5000D0E020915202309153028091040190918F
:100F600005012817390709F462C080915202909157
:100F70005302909305018093040163E080E10E9495
:100F8000F1038FE791E00E94B40363E080E10E94E7
:100F9000F1036091520270915302072E000C880BEE
:100FA000990B97FF4AC00E942B0462E080E00E94E8
:100FB000F1038FE691E00E94B40362E080E00E94BA
:100FC000F10380915202909153020A97F4F584E85C
:100FD00091E00E94B4038091520290915302B801B3
:100FE000681B790B072E000C880B990B97FF29C003
:100FF0000E942B0480915202909153020A97BCF0F8
:1010000060E083E00E94870064EF71E080E090E0A0
:101010000E94F80061E083E00E9487008091520204
:10102000909153020A979093530280935202209713
:1010300009F48FCF0E9400008CCF4AE00E94660323
:10104000B4CF4AE00E946603D5CF8FE491E00E94BE
:10105000B403D0CFA1E21A2EAA1BBB1BFD010DC009
:10106000AA1FBB1FEE1FFF1FA217B307E407F50758
:1010700020F0A21BB30BE40BF50B661F771F881F34
:10108000991F1A9469F760957095809590959B01CA
:10109000AC01BD01CF010895EE0FFF1F0590F49143
:0810A000E02D0994F894FFCF44
:1010A8002C012C01FFFF0000400014005400000038
:1010B80000001802EB012E03C101E401D101C201B5
:1010C8000000000025042D012E035A0157656C63AA
:1010D8006F6D6520746F20496D6D756B6900426591
:1010E800616368204875742052656E74616C0050A5
:1010F80031302070657220736F6E6700436F696EC0
:101108002F7320696E7365727465643A203000200D
:1011180020202020202020202020202020202020C7
:1011280020202000436F696E73206E6565646564D6
:041138003A20000059
:00000001FF
